:100000000065002035330000039800002133000014
:1000100021330000213300002133000000000000E4
:100020000000000000000000000000000535000096
:100030002133000000000000D13400002133000013
:10004000B1360000B1360000B1360000B136000014
:10005000B1360000B1360000B1360000B136000004
:10006000B1360000B1360000B1360000B1360000F4
:10007000B1360000B1360000B1360000B1360000E4
:10008000B1360000B1360000B1360000B1360000D4
:10009000B1360000B1360000B1360000B1360000C4
:1000A000B1360000B1360000B1360000B1360000B4
:1000B000B1360000B1360000B1360000B1360000A4
:1000C000B1360000B1360000B1360000B136000094
:1000D000B1360000B1360000B1360000B136000084
:1000E000B1360000B1360000B1360000B136000074
:1000F000B1360000B1360000B1360000B136000064
:1001000053B94AB9002908BF00281CBF4FF0FF317E
:100110004FF0FF3000F00CB8ADF1080C6DE904CEE3
:1001200000F008F8DDF804E0DDE9022304B07047D0
:10013000704700BF2DE9F04786468C460846089E6A
:10014000154674461946002B40F0C2808542B2FA2B
:1001500082F245D94AB1C2F1200300FA02FC2EFA1C
:1001600003F3954043EA0C0C94404FEA154EA8B2B5
:10017000BCFBFEF8230C0EFB18CC08FB00F943EA8D
:100180000C43994528D9EB1808F1FF3704D299455B
:1001900002D9A8F102072B44A3EB0903A4B2B3FBD5
:1001A000FEFC0EFB1C330CFB00F044EA0344A042AF
:1001B00014D92C190CF1FF3304D2A04202D9ACF1AE
:1001C00002032C44241A43EA07401EB1D440002302
:1001D00034607360BDE8F0874746DDE76346F1E7CA
:1001E00092BB431B01214FEA154EAFB2B3FBFEFC9D
:1001F000200C0EFB1C330CFB07F840EA0343984528
:1002000062D9EB180CF1FF3004D2984502D9ACF159
:1002100002002B44A3EB0803A4B2B3FBFEFC0EFBCD
:100220001C330CFB07F744EA0344A7424ED92C19B0
:100230000CF1FF3304D2A74202D9ACF102032C44E3
:10024000E41B43EA0040C0E7C2F1200320FA03F1B7
:10025000954090402EFA03F303434FEA154EAFB298
:10026000B1FBFEFC0EFB1C10190C0CFB07F841EA5D
:100270000041884504FA02F422D969180CF1FF30D4
:1002800004D2884502D9ACF102002944A1EB08014F
:100290009BB2B1FBFEFC0EFB1C110CFB07F743EA03
:1002A00001439F420ED9EB180CF1FF3104D29F425B
:1002B00002D9ACF102012B44DB1B41EA004192E779
:1002C0006046E3E76146F7E76046A3E76346B7E7C2
:1002D000834206D916B9002108467BE7C6E900E04B
:1002E000F9E7B3FA83F78FB9834201D3724508D88F
:1002F000BEEB020460EB030301209C461EB9002103
:1003000068E73846FAE7C6E9004CF8E7C7F1200C81
:10031000BB4022FA0CF41C432EFA0CF120FA0CF329
:10032000B84001434FEA14490EFA07F5B3FBF9F858
:100330001FFA84FE09FB18300B0C08FB0EFA43EA87
:1003400000439A4502FA07F240D9E31808F1FF305A
:1003500004D29A4502D9A8F102002344A3EB0A0370
:1003600089B2B3FBF9F809FB183308FB0EFE41EA2A
:1003700003418E452CD9611808F1FF3304D28E4514
:1003800002D9A8F10203214443EA0040A0FB0298ED
:10039000A1EB0E014145CE46434602D306D14D4561
:1003A00004D2B9EB020E68EB04030138002EA6D08C
:1003B000B5EB0E0261EB030101FA0CFC22FA07F324
:1003C0004CEA0303F940C6E9003198E74046C5E727
:1003D0004346D9E730B5284B284AC3F8002685B0F4
:1003E000C3F80426C3F80826C3F80C26C3F8102661
:1003F000C3F81426C3F81826C3F81C2600F046F8E4
:1004000008F0D5FA00F060F838B1012000F054F897
:1004100002F014FA1A4802F0C7FD01A800F028F90A
:10042000184B1B68834200D0FEE769469DF8080020
:10043000154D00F009FF01990098098908232A4603
:1004400008F0C1FF044600B1FEE7009808F0BAFFCB
:1004500005F06AFF01F014FA00F04CFA02F0A6FF72
:100460002B6883F3088884F31488BFF36F8FBFF37E
:100470006F8F6B689847FEE7000001403546526E6B
:1004800068B10000780700207007002008B5084810
:100490000AF0BBF958B107484FF4003108F051FA9F
:1004A000BDE80840024800220D2108F03ABA08BD14
:1004B0007CAF000078B1000002460D21014808F031
:1004C00030BA00BF7CAF000037B50D4C20460AF0B3
:1004D0009CF998B10B484FF4803108F032FA256945
:1004E000A36801A95B682046984720B92B6801984A
:1004F0005840C0F3C020003818BF012003B030BD01
:100500007CAF000070B100002DE9F04FAFB0DDE925
:100510003A89DFF818A13C9FDAF8004012A8164685
:100520001D4600F0BBF9B8F1000F07D0B9F1000F7C
:1005300004DD4A46414612A808F0F1FA338972896F
:10054000D6F80CB013449B444FF00008C34535D88F
:1005500012A90AA808F009FB27B120220AA93846E7
:1005600009F0BBF90023009331464FF6FF732A468A
:1005700004A808F01DFA0646E8B92846099F08F0C5
:10058000CCFA874217D80DF10A0302AA03A904A8DE
:1005900008F05CFA00280EDB42D1039904A808F0A9
:1005A000A1FABDF80A3000BB21494FF6FF7031F8BF
:1005B000022B824217D1DAF8004033E0399B389A97
:1005C000ABEB0809994528BF99464B46414628465A
:1005D00008F0F9FE0028EED138994A4612A808F032
:1005E0009EFAC844B2E79342E1D1102BCBD1BDF8BB
:1005F0000840202CDFD10399234612AA284608F090
:10060000E2FE0028D7D1224612A90AA808F078FAFB
:100610000446084B1B6883424FF00106B3D0CAE77B
:10062000002EC8D020462FB0BDE8F08FB0000020CB
:1006300034B50000780700207FB50A46096911F03B
:100640000C0F18BF21F00C01034618BF11614FF4C5
:1006500080700021019005480090CDE903110291BE
:100660000846FFF751FF07B05DF804FB9620002015
:10067000F8B5124C124B134F1D6821460646012057
:1006800000F0E2FD2068394605F066FE80B920687A
:100690003946FFF7D1FF05460B4B1B68834207D154
:1006A000206808F069F9236830715B68B3603760CF
:1006B000206808F087FE2846F8BD00BF7C070020B0
:1006C000B000002096210020780700202DE9F04F8F
:1006D0009DB0036802934368039383680493C368DF
:1006E0000593036906934369079383690893C36974
:1006F0000993DDE9062CDDE904BEDDE902469846F2
:10070000DFF890A1089B00930027CD595AF8049B6D
:100710000CAB2DBADD514FEAF223A94483EAB213A0
:10072000009D83EA72634B4425EA020502EA0C0944
:1007300085EA09052B44434486EA0B054FEA7438E1
:1007400088EAB408254006EA0B0985EA090588EA23
:10075000B4580437A844402F03EB0E054344DE464B
:10076000DDF8008040F087804B490A914FF0100A75
:1007700051460AF1010A0DF1700E0AF00F070EEB57
:10078000870701F00F0957F8407C01974FEAB748F7
:1007900088EAF71801F10E0707F00F070EEB87073D
:1007A000093157F8407C4FEAF74E8EEA774ECDF884
:1007B0002CE001F00F010DF1700E0EEB81010EEB3C
:1007C000890951F8401C59F840EC7144DDF804E007
:1007D00088EADE08DDF82CE041448EEA972E714469
:1007E00005EA02084FEAF52E2CEA050787EA080712
:1007F0008EEAB51EDDF8288049F8401C8EEA756E39
:10080000774458F804EFCDF8288077440F440099D6
:10081000CDF800C039444FEA733E84EA06078EEAF9
:10082000B30E1F4004EA06088EEAB35E87EA0807A3
:100830007744BAF1400F01EB0B0E0F44B34622D1BF
:1008400002993944016003991944049B416023448F
:100850008360059B3344C360069B73440361079B1D
:100860002B444361089B13448361099B6344C36128
:100870001DB0BDE8F08FCDF800C0B34694462646C3
:100880002A461C4641E7944626462A461C4675469B
:100890003B466DE780B10000BCB1000010B50446D6
:1008A000C8B17022002108F0BEF90B4B0B4A0C496D
:1008B0000C48C4E900230C4BC4E902130B4BC4E9F8
:1008C00004030B4BA36103F17453A3F52303A3F6B5
:1008D0009243E361012010BD85AE67BB67E6096AFC
:1008E00072F36E3C7F520E513AF54FA58C68059B12
:1008F000ABD9831FBFF36F8F72B6124B4FF0FF322D
:10090000C3F88020C3F88420C3F88820C3F88C2063
:10091000C3F89020C3F89420C3F89820C3F89C2013
:10092000C3F88021C3F88421C3F88821C3F88C213F
:10093000C3F89021C3F89421C3F89821C3F89C21EF
:10094000704700BF00E100E0014B1B68184700BF83
:10095000B400002007B50B46002102460091034871
:1009600000F006F803B05DF804FB00BF4909000081
:100970002DE9F04F8DB01D46531E82460191039321
:100980004FF00009039B5878252803F1010419D181
:100990001E4600204FF0FF380236034602904446C0
:1009A00031780396392954D81F2914D8002900F02A
:1009B000EE8101992520D04701993078D04709F17F
:1009C0000209DFE7002800F0E2810199D04709F130
:1009D00001090394D6E7A1F12002192AE9D801A759
:1009E00057F822F04D0A0000B3090000B3090000D7
:1009F0004D0A0000B3090000CD0A0000B309000051
:100A0000B3090000B3090000B3090000190B00008E
:100A10004D0A0000B30900002D0B0000D90A0000A8
:100A2000B3090000E70A0000070B0000070B0000F5
:100A3000070B0000070B0000070B0000070B00006E
:100A4000070B0000070B0000070B000008460136EB
:100A5000A6E7582900F0EB80A1F16302D7B2172F67
:100A6000A7D8172AA5D801A757F822F0D50C00005F
:100A7000530B0000B3090000B3090000B3090000E4
:100A8000330B0000530B0000B3090000B309000052
:100A9000330B0000B3090000B3090000B3090000E4
:100AA000090C0000B3090000B3090000A90C000004
:100AB000B3090000530B0000B3090000B3090000A4
:100AC000090C0000B3090000330B00000199252038
:100AD000D04709F1010955E7029A02F0FE0202929D
:100AE0004FF00008B3E7002C0DDAB8F1000F0DDA73
:100AF000029A002A00F0438124EAE4740A2202FBED
:100B00000414303CA3E7B8F1000FF5DB0A2202FB26
:100B10000812A2F130089AE7B8F1000F55F8042B3B
:100B200080F22F81002A80F22E815442022202920A
:100B30008DE7682903D1682B06D1482387E76C2904
:100B400002D16C2B00F02181002B7FF432AF0B46D9
:100B50007DE77A2B06D1752955F8046B14D14FF037
:100B6000000B0CE06C2BF6D04C2BF4D1073525F0A4
:100B700007037529D3E9006B03F1080506D1202886
:100B80003BD1854F013C09E04FEAE67BBBF1000F0A
:100B9000F5DA7642814F6BEB4B0B013C0DF12D03E7
:100BA000059300230493304659460A220023FFF799
:100BB000A7FA059B303203F8012DB4460593049B38
:100BC0005A46BCF10A0F8B4672F1000203F1FF3165
:100BD00006460491E7D2C3F1010B30330DEB030657
:100BE000B8F1000FA6F104066DDA029BD9077DD497
:100BF000A8EB0B03A4EB0B0413E02B280ABF684FF0
:100C0000684F04F1FF34C9E770290FD155F8042B60
:100C10000023FAB9634F644E053C6FF004034FF0B4
:100C2000050B029A920770D4A04666E078216C2BDF
:100C300003D155F8042B002308E04C2BF9D10735DC
:100C400025F007031D465B6855F8082B232825D19E
:100C5000880621D5554F023C01F06001A1F1390B06
:100C60000DF12D0E002602F00F01092988BF59440D
:100C700030310EF8011D102A4FEA121141EA0371BA
:100C80004FEA131C73F1000306F1FF3008D2C6F1DE
:100C9000010B06F13003A1E7454FDCE7414FDBE7ED
:100CA00006460A466346DEE755F8046B304608F010
:100CB000E6FDB8F1000F834602DB4045A8BFC346FE
:100CC000384F4FF00008A8EB0B03002B92DDA4EB8C
:100CD0000804A6E755F8043B8DF81830314F013C65
:100CE0004FF0FF334FF0010B06AE9AE7A046EAE75C
:100CF000029301992020D047029BB8F10108F7D553
:100D000024EAE472013C9144A41AB84606E0049334
:100D100002920199D047029A049B9046424612F8EB
:100D2000010B0028F3D11A46013A15D5002BACBFB0
:100D3000C7EB03077F425B46013B15D5BBF1000FB4
:100D4000A8BF5F444F442646013E14D5002CA8BFDF
:100D50003F1907EB080915E6049302920199302028
:100D6000D047049B029ADFE70293019916F8010B22
:100D7000D047029BE0E701992020D047E4E7012219
:100D8000D5E6904663E6144661E64C235FE64846A6
:100D90000DB0BDE8F08F00BF54B5000052B50000A3
:100DA00056B50000B0B600005EB5000058B50000B2
:100DB0005BB5000008B50446EFF31183202383F3ED
:100DC0001288BFF36F8F05F0AFFA204602F0DCFA0D
:100DD000024808F006F908F026FDFCE764B50000BB
:100DE0002DE9F043079D15B91560002012E003249A
:100DF000B5FBF4F404EB4407BD4218BF0134B4F171
:100E0000804F09D2A40001348C4200D838B9146054
:100E10006FF00B00BDE8F0834FF0FF34F7E7DFF829
:100E2000BCE004460021B94203F1030C04F10406BE
:100E30002CD3A942274624D21F7801F1010CAC45DE
:100E4000264938BF5B784FEAA70E28BF002311F868
:100E50000EE084F800E0AC4501EB131E3CBF9B00A4
:100E600003F03C034FEA071707F0300738BFCB5CAD
:100E70001EF80770677028BF3D23A3703D23E37001
:100E80003746381A002310603B70AEE71CF8034C5D
:100E90001CF8023C1CF8018C4FEAA40924011EF83E
:100EA000099006F8049C04F030040EEB13199B0023
:100EB00019F8044006F8034C03F03C030EEB9814B9
:100EC00008F03F08E35C06F8023C1EF8083006F81C
:100ED000013C033134466346A5E700BF0DB6000070
:100EE0002DE9F043DDF81CE0DFF82C8100273C46BB
:100EF0003D4675451FD3E4BB14600020BDE8F08378
:100F00000136764533D013F806C0BCF1200FF7D078
:100F1000AEEB0609B9F1010FA6EB05050DD0BCF14A
:100F20000D0F0AD103EB060999F80190B9F10A0FE8
:100F30006ED1751CDDE72E46E3E7BCF10A0FF8D051
:100F40002DB9BCF13D0F05D10137022F0DD96FF03E
:100F50001500D3E71CF0800FF9D118F80C507F2D45
:100F6000F5D03F2D01D8002FF1D10134E1E735460E
:100F7000C1E704F007064FF0060CE4080CFB06F688
:100F80000CFB04F40736E41B04EBD60470B18C426E
:100F90000CD80027DFF880E0DFF880801D44014690
:100FA00003263C469D4205D10C1AA5E714606FF05C
:100FB0000B00A3E713F8019BA9F10A0C5FFA8CFC64
:100FC000BCF1160F04D848FA0CFC1CF0010FE9D054
:100FD0001EF809C00134BCF1400F08BF013E0CF0FF
:100FE0003F0C042C4CEA8717DCD17EB13C0C012E5F
:100FF0000C7002D101310024D4E7022E4FEA1724ED
:101000004C7016BF8F7002310331F4E73446C9E7E4
:10101000002DA2D09BE700BF8DB50000F6FFBFFFFB
:101020002DE9F047058B04462807904611D4022984
:1010300005F0070540F0CC80204608F004F878B1B0
:101040000138218B042811D8DFE800F0C2106D852B
:10105000950001290CBF45F0100545F020052583BA
:1010600088F31188BFF36F8FBDE8F08701F0070A9E
:10107000AA4500F0A5800027B9463E46A368002B8C
:1010800000F0BC8041F00801218388F31188BFF390
:101090006F8FA168002900F0BA800D68002900F068
:1010A000B680D1F80480334652462046C047002D12
:1010B00076D02B6829461D46F0E701F007035A1F3A
:1010C000012A1BD8002221F00701062B276889B2CC
:1010D000C4E9002209D13B4603E0628B01326283FE
:1010E0001B68002BF9D141F002012183204607F053
:1010F000AAFF00287AD041F0200176E0042B0AD123
:1011000021F0070189B22183204607F09CFF10B12E
:1011100041F020012183218B01F0070AAA454FD01D
:101120000027B946AAE7236921F0070141F006012B
:10113000062DD3F8009021832DD1B9F1000F3FD0B7
:1011400041F00801218388F31188BFF36F8F3A497A
:101150002046C84729E021F00701236941F0040136
:1011600089B2042DD3F804902183E6D000273E46AF
:101170004FF0040A82E721F00701236941F00501DD
:1011800089B2052DD3F808902183D6D000273E469A
:101190004FF0050A72E700273E464FF0060A6DE75A
:1011A0002B4687E7B9F1000FD1D1EFF31188202347
:1011B00083F31288BFF36F8F238B23F008032383FD
:1011C000258BEA062ED525F01003238305F00705AD
:1011D0006669218B002EBFF670AF00232768C4E933
:1011E000003321F0070141F001012183218B01F03F
:1011F000070AAA454FF000097FF440AF002F9CD0AA
:1012000041F00801218388F31188BFF36F8F002F0D
:10121000C8D03D68394633465246204607F03FFF66
:101220002F46F4E7AB067FF51BAF25F020032383A1
:1012300005F0070500E700BFCB900000014B0360FD
:101240000020704780B2000070B5114B1C680D463D
:10125000DCB1104B196800238B4202DB6FF00100F8
:1012600070BD224612F8106B864202D0013314463C
:10127000F2E7E06810B96FF01200F1E709F0C5FA83
:101280000028F8D02C600020EAE76FF00C00E7E7B8
:10129000B800002080B20000F0B40C4B0C4E5F6A26
:1012A0000C4BB34203D36FF08500F0BC70475D6810
:1012B000BD4209D31C693CB195F802C00579AC4523
:1012C00002D12346F0BC18472433EAE78007002008
:1012D000CC030020A80300202DE9F047134CDFF8D1
:1012E0005080DFF8509005460E461746444503D31C
:1012F0006FF08500BDE8F0876268D9F824309A4223
:1013000012D3A36983B190782979884205D13A46EE
:1013100031462846BDE8F04718475279012A03D1E3
:101320003A463146284698472434DFE7A803002090
:10133000CC030020800700202DE9F0410B4CDFF8A2
:10134000308005460E461746444502D36FF08500AF
:1013500009E063690BB92434F6E73A46314628467A
:1013600098470028F7D1BDE8F08100BFA80300200E
:10137000CC03002010B5044608F0FCFA10F1780FF9
:1013800000D050B9054A204608F069F8D2F8C430B8
:1013900023EA0003C2F8C430002010BD80070020FB
:1013A00002480822002108F0A3BA00BF3B08002031
:1013B00070B50B4B0B4CA34201D3002070BD196AD2
:1013C0001E7F00220439D5B2AE4201D82433F2E7A1
:1013D000013211F832508542F5D10120EEE700BF0D
:1013E000A8030020CC03002008B509480378C3F304
:1013F00041130A3350F823303BB100F1080200F1E9
:1014000010019847C043C00F08BD1846FCE700BF55
:101410008007002004282DE9F14FDFF8989004465A
:101420000F4616D001282DD1DFF88C8098F8B930FE
:1014300043B300F035FE214D4D4520D2D5F820B004
:101440004FF0000A2B7F5FFA8AF6B34204D82435A6
:10145000F2E7FFF7A5FFE7E70BEBC6060AF1010A83
:10146000307908F087FA0246307907F0F8FFD8F8AB
:10147000C430002A23EA0003C8F8C430E2DA0023AB
:1014800088F8B9300D4D4D4508D30B4B1B6A6BB135
:101490003946204601B0BDE8F04F1847EB681BB154
:1014A0003A462146284698472435ECE701B0BDE886
:1014B000F08F00BFCC03002080070020A80300208D
:1014C00073B5C4B263060D468DF8074007D02046B9
:1014D000FFF76EFF78B10D4B93F8BA0058B10B4E81
:1014E000204655B102F070FEF3691BB10DF1070102
:1014F00008209847012002B070BD02F08DFEF3690C
:10150000002BF7D00DF107010920F2E7800700203A
:1015100073B586788DF80060037942791C4C43EAF4
:101520000223ADF80230C378304603F003038DF890
:10153000043007F094FFD4F8C430184205460BD0AD
:10154000304600F08FFD3046FFF714FF09F0DEFA59
:1015500010B9962006F092FD684602F011FE10F1D7
:10156000780F03D010B1002002B070BD9DF80000CC
:1015700002F08EFE10F1780F01D00028F3D1D4F8DC
:10158000C43001202B4384F8B900C4F8C430EBE721
:10159000800700202DE9F047A34EB36904460F46AB
:1015A0001546FBB9237803F01F03012B00F09D8043
:1015B000022B00F0048133BB94F900002A686178A3
:1015C000002834DA062912D008292BD0D9B90123F2
:1015D0001370517096F8C3305B0043F00103137031
:1015E00002232AE198470028DCD100200DE0628820
:1015F000100A011F0129844605D9072803D8716AFA
:10160000D2B20C781CB96FF01500BDE8F0874E78A7
:10161000664503D19A4200F00B8101332144F0E783
:101620000B780AE196F8BA301370012305E101390D
:101630000829E8D801A353F821F000BFD51600000F
:1016400007160000E31600000716000061160000F0
:101650000716000007160000071600006D160000B0
:10166000A07802F07BFD0028BFD0CCE76388756AC4
:1016700063BBFFF795FE638886F8BA30F369002BE9
:10168000B3D06A4903209847AFE76B78042B10D09A
:10169000052B11D0022B04D16F796388BB4208BFA0
:1016A00001202B781D442B78002BEED10028AAD0E6
:1016B000DFE795F80380F4E76388BB42F1D1B8F126
:1016C000000FEED12846FFF723FFEAE7FF270020AF
:1016D000B846E8E76388012B95D1002386F8C3302C
:1016E00083E76388012B8ED1F8E796F8BA30D5F8F6
:1016F00000C0002B87D0756AA38894F804E02A46BE
:10170000107800283FF47FAF5178022904D192F875
:101710000480F04500F293800244F1E78CF8002049
:101720008CF80120396060E7154494E00B2A7FF4BF
:101730006AAF00274FF0FF08C146BA4606E06B7853
:10174000042B0FD0052B21D02B781D442B78002B98
:10175000F5D1F36913B1514607209847002F7FF464
:1017600044AF50E795F80280A38895F80390984518
:10177000EAD163889945E7D1B8F1070F1CD806EB89
:101780000803AA4683F8BB900127DDE7A3884345F9
:10179000DAD1A3784B450AD0AF78384600F062FC26
:1017A0003846FFF7E7FDB0FA80F77F09CCE7284617
:1017B000FFF7AEFE0746C7E7AA460027C4E794F93D
:1017C00000206378002A18DA002B7FF41CAF2479FC
:1017D0002D6863060AD02046FFF7EAFD00283FF493
:1017E00012AF96F8BA30002B3FF40DAF29462046D1
:1017F00002F032FD00236B70F2E6012B08D0032BC0
:101800007FF401AF6388002B7FF4FDAE012103E07C
:10181000618800297FF4F7AEA088FFF751FE002809
:101820007FF4E3AEEFE600BF800700203A08002017
:10183000022829607FF4F4AE4B883B60D5E694F92A
:10184000000062780028BFF671AF002A3FF466AF4F
:101850000A2A7FF4D8AE2A78002A3FF4D4AE6978F9
:1018600004297FF461AFA9788B427FF45DAF072B29
:1018700096BF9B19002393F8BB308CF80030D4E658
:1018800070B5164D95F8B830FBB102F047FC002852
:1018900022DB00F005FC0024D5F8C430E340DA0771
:1018A000E6B214D4D5F8C43004F11002D340DB07FB
:1018B00005D546F08000FFF75DFD00280CDB013404
:1018C000102CE9D1002385F8B830002004E0304620
:1018D000FFF750FD0028E5DA70BD00BF800700204B
:1018E00013B5164C237DF3B9E268A168019201ABF0
:1018F000802007F0C2FD019AA3681344A360E36847
:101900009B1AE3606BB962B12369E2889A4208DDF1
:1019100094F8C82093FBF2F102FB11330BB90123B9
:10192000237502B010BD00231A4619468020237586
:1019300002B0BDE8104002F0D5BC00BF8007002017
:1019400030B585B0002302460D460193002858D1DA
:10195000002935D108220B460DEB020108F023F8CF
:10196000002804DA802002F02FFC05B030BD2A4C9C
:10197000029A2260039A626004F13802A2609DF923
:101980000820BDF80E302575002AC4E903550ADB8E
:10199000802B04D9802002F017FC0020E3E713B16C
:1019A000C4E90333E1E7FFF71FFD0028DAD0E2883E
:1019B00023699A42D4BFE260E360FFF791FFD4E766
:1019C000154CD4E90215002D01AB04DC07F0EBFF48
:1019D0000028CADAC6E72A4607F0E5FF0028D9DB67
:1019E000019AA3681344A360E3689B1AE360002B89
:1019F000BBD104F13803A360FFF7F6FC0028DCD16B
:101A0000B0E78028B1D1044BDA68002AD5D11B7D1C
:101A1000002BD2D1A9E700BF80070020054B064A62
:101A20009A62064ADA62064A1A63064A58629A615C
:101A300000207047800700209515000099120000D3
:101A400039130000D91200002DE9F3410446474D37
:101A500047484FF0FF334FF0FF3205F071FD95F826
:101A6000B830002B7BD16B6A83B142482C62E861AD
:101A70006E6A02F051FD02F01FFB041E10DA3C48B2
:101A800005F0D6FD204602B0BDE8F08100F0BEF8BA
:101A9000FFF7C4FF6B6A002BE7D14FF0FF34EEE78E
:101AA00000F020FB041EEADB7378012B5AD1F37996
:101AB000002B57D00026684685F8C830ADF80230B4
:101AC0008DF804608DF8006002F05AFB041ED6DB2E
:101AD000802768468DF8007002F052FB041ECEDBB2
:101AE0002549304602F004FD041EC8DB2249384671
:101AF00002F0FEFC041EC2DB204CDFF8848044456B
:101B00001AD3002002F0C4FB041EB8DBD5F8C430A1
:101B1000802043F00103C5F8C43002F0B9FB041E75
:101B2000ADDBD5F8C43043F48033C5F8C4300123AD
:101B300085F8B8300024A2E7276A0026227FF3B296
:101B40009A4201D82434DAE707EBC30257F833107E
:101B5000107902F0CDFC01360028EFD09DE76FF040
:101B600077048CE76FF0150489E700BF8007002039
:101B7000D00200201514000041190000A803002025
:101B8000CC03002030B51F4B8BB005AA03F1100524
:101B900018685968144603C40833AB422246F7D18B
:101BA0001B7823701022002101A807F0A1FE122249
:101BB0000021154807F09CFE102101A808F050F8FC
:101BC00000281BDD0828B8BF0820093801AB0E49E2
:101BD0001A18002012F8013F0AAC04EB131403F0AA
:101BE0000F0328336B44013014F8144C13F8143CE1
:101BF0000C7008284B7001F10201EBD102480BB0C8
:101C000030BD00BF4DB60000B72100202DE9F04FD8
:101C1000744B93F800B087B0BBF1000F03D072484B
:101C200007B0BDE8F08F704C00264FF0011AB046A7
:101C30003546B14623783BB96C4B02349C42F3D114
:101C4000684A01231370EAE76378052B1BD8DFE8A5
:101C500003F08E03C68E1D39402304A88DF810B002
:101C6000ADF812308DF814B007F06FFE40B10823C4
:101C700004A8ADF8123007F068FE08B1ADF812B054
:101C8000BDF81230E37123781C44D3E7E378002BCE
:101C9000F9D1A37863B108F101085FFA88F8F2E797
:101CA0006A68944207D024359D42F9D30020B7E7F3
:101CB0004F4D504BF8E7AB68002BECD04146204627
:101CC0009847E8E7002DF1D000222B7F9A42EDD211
:101CD000296AA07801EBC2010B79984201D0013248
:101CE000F3E70127E07800F003008DF81400207975
:101CF00094F805C040EA0C20ADF8120094F90200F7
:101D00000028FBB228DA07F110004FF0010C0CFAA2
:101D100000F010EA0A0F26D143F080008DF8100081
:101D200004A8CDE90213019207F00FFEDDE90121BD
:101D3000039BC0B99DF81020A27012F0800F18BF4D
:101D400010330A7118BFDBB24FF0010214BF9A4082
:101D5000BA404AEA020A96E70120B84010EA0A0FA0
:101D600001D11846DAE70137102FBBD1B7E7032EB0
:101D70001DD1FFF707FF074668B107F080FD01900E
:101D800048B11D4807F07BFD019A824203D13946D4
:101D9000A01C07F0A2FD23786FF00201E218091BD6
:101DA00004EB5303D14213D50136F6B26BE7002E94
:101DB000F1D1B9F1000F3FF479AFA4EB090389F831
:101DC0000230C3F3072389F8033089F80480EBE776
:101DD00002F801BC13F8010902F8020DE2E7A1467E
:101DE00051E700BFB621002004030020A703002014
:101DF000A8030020CC0300204DB6000010B5094B0D
:101E000000211A461C78844204D15C6814B102EBAC
:101E1000811010BD0131042903F14003F2D10020EB
:101E2000F7E700BF4C0800202DE9F34150F8283CAB
:101E300010F82C6C103304460AD1036950F8202C9A
:101E4000980736D5D2B9590715D5002344F8283C50
:101E500054F8283C10330BD054E9077554F8148C0F
:101E600008F054FE00284FD02E48214608F032FEDC
:101E700002B0BDE8F08143F00403236154F8241C50
:101E800001AB304607F0F9FA10B16FF01503DDE74A
:101E9000019A54F8243C134444F8243C54F8203C60
:101EA0009B1A44F8203C54F81C3C134444F81C3C56
:101EB000CEE754F8241C01AB304602F08FFA00281C
:101EC000E3D1019D54F8243C2B4444F8243C54F8BD
:101ED000203C5B1B44F8203C54F81C3C2B4444F849
:101EE0001C3C002DB1D0304602F01CFBB5FBF0F3DA
:101EF00003FB1055002DA8D154F8203C002BA4D092
:101F0000304602F0B3FAA3E744F8180CA4F110002D
:101F100005F0FCFB002DABD0424639463046A847C1
:101F2000A6E700BFD00300204B1E012B73B5064669
:101F30000D460FD8FFF762FF044668B9012D09D19D
:101F400001AB01220DF10301304602F047FA019B7B
:101F5000002BF5D102B070BD08F0D8FD04F12C01C2
:101F600008B1012D05D1084602B0BDE87040FFF769
:101F70005BBF034802B0BDE8704008F0ABBD00BFD6
:101F8000D00300202DE9F74F0646019115469846EB
:101F900007F0BBFA044600285BD1EFF3118A202337
:101FA00083F31288BFF36F8FDFF8ACB000220023F9
:101FB000584605F0CFFB70B9DFF8A090A70109EBF8
:101FC0008414636813F1100F14D10193584605F07F
:101FD0009DFB019B06E00134042C0BF1400BE5D185
:101FE0006FF00B038AF31188BFF36F8F184603B0AD
:101FF000BDE8F08F019B2061C4E902350C9B636151
:102000000D9BA36130466FF00F0309F80760C4F819
:102010003C80636002F086FA58B1304602F082FAE2
:10202000B5FBF0F303FB10551DB1E36B43F0040364
:10203000E36318F0020F07D007F12C010848494468
:1020400008F048FD0023CDE7304602F00FFA0346C2
:10205000C8E76FF00F03C9E7680800204C080020AC
:10206000D003002010B5EFF31184202383F31288EE
:10207000BFF36F8FFFF7C2FE50B14368103307D133
:102080006FF08B03436000F12C01044808F022FD3F
:1020900084F31188BFF36F8F10BD00BFD003002001
:1020A000F8B50E4C04252027EFF3118687F312882C
:1020B000BFF36F8F6368103307D16FF08B0308484D
:1020C000636004F12C0108F005FD86F31188BFF36D
:1020D0006F8F013D04F14004E6D1F8BD4C080020AB
:1020E000D003002070B50A4C0A4E00253146204628
:1020F00008F0D4FC0122A4F110001146013508F0CB
:1021000091FC042D04F14004F0D1002070BD00BF0B
:1021100078080020291E000070B504460E4601799B
:102120001248154607F0CDF9E8B194F9002063781C
:10213000002A11DB202B04D0222B09D06FF0850060
:1021400005E029680722103807F0C7FB002070BDA2
:10215000638800F8093CF9E7212BEFD110380723F9
:1021600028603360F2E76FF01200F0E74C090020BE
:1021700008B50146034807F0B2F910B1012300F891
:10218000073C08BD4C0900200169012381F84B3050
:102190000B6833B191F849301BB10248083108F09F
:1021A00099BC7047D00300200169012381F84A30AF
:1021B0000B6833B191F848301BB10248083108F080
:1021C00089BC7047D003002070B5012382F84830E5
:1021D00013680D4614463BB192F84A3023B10E48BD
:1021E00002F1080108F076FCD4F890309A681B6977
:1021F0009A4205D17DB904F1180140F6CD4204E0C0
:1022000004F11801002DF8D00022BDE8704002480A
:10221000002305F0FFBB70BDD003002038B5056971
:1022200095F89E0088B195F89F307BB985F84830C5
:10223000D5F8900007F051F8002204460023044826
:1022400005F1180105F0E6FB204638BD0020FCE74B
:10225000D00300200D4A03460021A0F84810106862
:10226000C3F8940090889279A3F8980083F89A2094
:1022700083F89C1083F89B10A3F89E1083F8A0109D
:10228000402203F14C0007F033BB00BF58B10000FF
:10229000F0B5D0F88C305B681B6A1F7D85B00446B2
:1022A000384607F032F90646F8B994F88630E3B1BB
:1022B000A06F4FF4806203A907F02EF80546A0B185
:1022C0008306A4F1180308BF00F1FF3584F83060DD
:1022D0000193074B039900932A4602233846FFF7E0
:1022E00051FEA06F294607F037F805B0F0BD00BFDA
:1022F000C921000010B504690023C4F8A8300C4BB4
:10230000C4F8A400596804F1A80269B9C3E900221D
:1023100004F10800074908F0C1FB04F11800064960
:1023200008F0E8FB002010BD0A605A60F0E700BF2B
:102330004C090020359500009122000030B54FF483
:102340000033426805690D4C85B042F2A100CDE929
:102350000103002385F89D30106AADF80C10007958
:102360000A2201A907F089F895F89D3023B90120C8
:1023700008F046FA013CF7D105B030BDA186010056
:1023800013B504698DF80710002384F84830D4F899
:10239000900001220DF1070106F09FFF10B908F02F
:1023A000B5FB40B12122002304F11801064805F0D5
:1023B00031FB02B010BD94F8A130002BF2D0002107
:1023C000212005F03DFEE2E7D003002037B514469A
:1023D0000A1E054620DDD4F88C0004F14C0106F0FD
:1023E0007CFF012384F8493023683BB194F84B30DB
:1023F00023B1114804F1080108F06CFBD4F88C10EB
:102400004B684A699A1ACB699B1A3F2B04D801235F
:1024100084F8A03003B030BD94F89E30002BF9D082
:10242000064B009301940123402204F14C012846FD
:10243000FFF7A8FDEEE700BFD0030020CD2300008A
:10244000F7B50D4601461D4807F02FF8044610B3B6
:102450000646691E56F8A4395F6805291BD8DFE8CF
:1024600001F01C1A031C222610F8061C99B901233E
:1024700000F8063C3B6A3246187BFFF7A7FF14F8CA
:102480005C2C42B93B6A187D0D4B009301960223E8
:102490001146FFF777FD03B0F0BD304603B0BDE84D
:1024A000F040FFF7D7BE012304F8053CF3E710F82E
:1024B000053C002BEFD00023F6E700BF4C090020BD
:1024C000C921000037B5094D0949002400944FF097
:1024D000FF334FF48062284605F05EFA054928462E
:1024E00008F01AFB204603B030BD00BFD003002027
:1024F000C02A00206CB6000008B5054806F071FD42
:10250000044806F06EFDBDE80840034806F069BDCA
:1025100075B60000B1B60000E4B60000014806F050
:1025200057B800BF10B3000038B5044618B90F4BB8
:102530000F485B6898476168B1F5683F10D0B1F506
:10254000680F0DD00B4DA9420AD011F468612068C4
:1025500007D00146084808F0AEF900232360656003
:1025600038BD142207F0C4F9F9E700BFF8010020D4
:1025700012B700002C5F5CA9540E002008B520B3F0
:102580004368B3F5683F10D101220368BFF35B8F46
:1025900053E8001F002903D143E800200028F7D1A9
:1025A000BFF35B8F0DD1002008BD094A93420AD0CA
:1025B00000684FF0FF324FF0FF3304F0C1FF0028F6
:1025C000F1D00448F0E70448EEE76FF4E040EBE7B1
:1025D0002C5F5CA9E98FFFFFEA8FFFFF08B5D8B138
:1025E0004368B3F5683F10D100220368BFF35B8FE7
:1025F00053E8001F012903D143E800200028F7D148
:10260000BFF35B8F0BD1002008BD074A934208D06F
:10261000006805F00DF8F6E76FF4E040F4E70348D2
:10262000F2E70348F0E700BF2C5F5CA9E98FFFFFEA
:10263000EA8FFFFF10B5044618B91D4B1D485B68B3
:1026400098476368B3F5683F2FD0B3F5680F2CD077
:10265000194A934219D1236803BB18484FF0FF323F
:102660004FF0FF33214604F03DFF08B923681BB942
:102670000F4B13485B68984720681422002107F02D
:1026800037F94FF46863636008E0B3F5683F0DD82D
:102690003A2B03D040F6BA629342DED1206808F0AC
:1026A00042F9636843F03A03636010BD054AF3E7FB
:1026B000F801002012B700002C5F5CA9540E002026
:1026C00038B700003A00003A08B5064906484023EA
:1026D000142208F0E2F8BDE808400449044805F077
:1026E000E9BF00BF54090020540E002018B30000B9
:1026F0002CB30000F7B5224E30688368DB6B03B162
:10270000984730688368DB6A002B31D11D4C1E4D21
:10271000306883681B69002B2DD001220DF1070161
:102720009847012827D1236843B92B681BB36968F0
:102730001A682A608B4208BF6A602360134A9DF8BA
:10274000070011887F2904D823680B444F1C178089
:1027500018720A28DCD123681188596000200C49BE
:1027600018604D684DB9C1E9003310802060CEE794
:1027700098470028CAD103B0F0BD2B604B60F4E746
:10278000C8120020700E0020800E0020942000202F
:10279000780E002010B5044B044618688368E1B237
:1027A0005B689847204610BDC8120020F8B5054662
:1027B00016460846EFF31187202383F31288BFF3F0
:1027C0006F8F1B490B684BB11A4C62689A4205D057
:1027D00000221A60626862B9C4E90033164A1368BD
:1027E00053B987F31188BFF36F8F0B6018463360BE
:1027F000F8BD13606360F1E7D2F804C01C68146090
:10280000634508BF546087F31188BFF36F8F5C681E
:102810000B60A042D8BF00F1FF3403F1080122464B
:10282000284607F05AF800232B55601C0123DEE7E9
:10283000740E0020800E0020780E002037B5244949
:10284000244A0023C1E90033C2E90033224A1C466E
:102850004868146088B9C1E900220133082B02F1ED
:102860008802F5D11D4D1E48286007F0CEFF38B90B
:102870004FF0FF34204603B030BD02604A60ECE701
:102880000020FFF7E1F804460028F1D128688368AA
:1028900023B11B6C13B113492246984728688368FB
:1028A000DB6A0BB1984748B1286883681B69002B25
:1028B000FAD001220DF107019847F4E70A4B286886
:1028C00000221A8083681B6A002BD3D09847D1E777
:1028D000800E0020780E0020880E0020C8120020F4
:1028E00090AF0000F5260000942000202DE9F04371
:1028F000EFB041F20443ADF8083040F60613ADF8EE
:102900000C30DFF80C91434BD9F800101B68424E95
:10291000A3EB06080B785A1C62F302030B7098FABB
:1029200098F34B808B8800255BBA8B804D70082212
:10293000284606F07AF931464246ADF8100006F016
:1029400074F91FFA88F440BA04F10A035BBAADF8CF
:10295000100002220DF1120106A80227ADF8123074
:1029600006F0BBFFD9F80010ADF8127008220DF187
:102970001A0006F0B2FFBDF81200083006AB80B2B4
:102980003146ADF812004246184406F0A6FFBDF8E5
:102990001230224E1C44A0B206AB3A46ADF81200EB
:1029A00004A9184406F099FFBDF812303B449BB2CD
:1029B000ADF81230009305AA06ABED2132A8FEF760
:1029C0000FFA174F059BADF812302C46BDF81230A8
:1029D000A34202DC6FB0BDE8F083336802215B687C
:1029E000A4B903A89847BDF8125033682D1B7C2D5D
:1029F000A8BF7C2532AA101929465B68984733681E
:102A000001215B6838462C449847DFE702A8E9E7D4
:102A10002C130020E4120020C921002030130020D4
:102A2000AFB6000038B50B4C05460A21204607F02A
:102A3000D3FE02220849204607F0C1FE294620465F
:102A400007F09AFE20460A2107F0CEFEBDE8384086
:102A5000FFF74CBFE412002065B700002DE9F047F6
:102A6000D4B005AD06AF07AE4FF0FF340B462C6077
:102A70003C603460012100240246CDE9014400910C
:102A800030A80421CDE9084407F0B9FB21464022D3
:102A900020A806F02DFF884B1C9305231D93874B20
:102AA0008748CDE91E37874B2193874B2393874B6C
:102AB0002693874B0321CDE92B01CDE92836CDE9BB
:102AC0002D3504220AAC279109AB1CA930A822920B
:102AD000249406F03AFE20B303240A217D4807F02F
:102AE0007BFE7D497B48022207F069FE794821463A
:102AF00007F042FE4CB972497648032207F05FFEA8
:102B0000764B7448196807F041FE0A21714807F0B6
:102B10006BFEFFF7EBFE089806F054FC54B0BDE8DE
:102B2000F0872B685A1CD4E90084D5D0B8F1000F87
:102B3000D2D06B4A2BB93968B1F1FF3F18BF0B46B1
:102B400013600021106805F011FF08A9C0B2FEF75C
:102B50007BFB0028C0D12B68604D002B47D1089F1C
:102B60002B603846D7F8089005F0CCFF5D4A014647
:102B7000384605F003FF002840F09C8033684B4541
:102B8000AAD8594A1060594A13602A68564E0898C4
:102B900031682244013A06F0B9FD002830609BDB21
:102BA0000898DFF8489106F04CFCB4FBF0F303FB07
:102BB00010462B680898A71B1C44D9F800309C428B
:102BC00038BF002606F03DFC012806D9089806F01B
:102BD00038FC013818EA000F4AD1296808983B46AA
:102BE000424606F005FC00287FF476AF2FE02A6805
:102BF000934201D0002470E73C4A12682344934278
:102C0000C3D969E7BA45089828BFBA4606F020FC40
:102C1000402201460CA806F06BFE524641460CA825
:102C200006F05BFE2968089853460CAA06F0E0FB04
:102C3000044600287FF451AF2B6853442B60D044E6
:102C4000A7EB0A07089806F0FCFBB842DAD996B958
:102C50002B68D9F8002033443B4493422B60C9D100
:102C6000204B08981A68114606F050FDC40F34E74F
:102C70004FF0400AE6E7089806F0EAFB0822014612
:102C80000CA806F035FE324608EB07010CA806F04A
:102C900024FEDDF82080296840467C1806F0D1FB30
:102CA0000CAA03462146404606F0A2FB00287FF40A
:102CB00013AFCDE7012410E768B70000ADA4000012
:102CC00077B700006EB70000B7A4000073B700002C
:102CD000B3A40000E412002065B70000DC1200205D
:102CE000E0120020D4120020D0120020CC120020CC
:102CF000F0B50C68164F174B85B002380D46C4F579
:102D00008061009003AA38190131FEF7E9F8044602
:102D1000D0B92B68039A1344022B2B6011D93E883B
:102D200076BAB6B2023B9E420BD13246B91C05F0D0
:102D30007CFF30B9022E04D92B689A1E2A60FC54FD
:102D40000124204605B0F0BD4FF0FF34F9E700BF85
:102D50006E2200207126002007B500230093044A4C
:102D60000448A423022107F041FD03B05DF804FBF1
:102D7000C9210020E41200202DE9F0430729B1B059
:102D800004466BD9037813F0050F67D143885BBA0B
:102D9000A1F108059BB2AB4260D3784B18608388E1
:102DA0005BBA8380FFF7D8FFA088012840F0D1806C
:102DB000E37943B1012B00F0C480082031B0BDE8B5
:102DC000F043FFF72FBE247814F00704F5D1014635
:102DD0006B486C4E6C4FDFF8B48107F0FDFC6C491A
:102DE0006748062207F0EBFC6548052107F0F0FC78
:102DF00021460020D6F8009005F0B8FD08A9C0B221
:102E0000FEF722FA0546F0B92023014610AA0898D9
:102E100006F0D9FA109BBB420DD14023019320ABA1
:102E20000093CDE90355089B029510AA2946284630
:102E3000FDF76AFB8146D8F80030089D4B4512D05B
:102E4000284606F0BFFA64B105214D4807F0C8FCDA
:102E500001214B4807F0C8FCFFF748FD31B0BDE841
:102E6000F0830124C4E7002300932A464FF6FF7342
:102E700010A90AA805F09CFD002847D04FF0FF35A7
:102E8000089806F09FFA14213D4807F0A5FC414937
:102E90003B48042207F093FC3948214607F076FCB2
:102EA0004DB93D493648042207F089FC34482022B8
:102EB00018A907F07BFC39493148072207F07FFC4D
:102EC000BDF8563001939DF855300093344A9DF873
:102ED0005430402120A800F053FD169B4BB1421EF8
:102EE0003E2A06D820ADC0F140012E4A284400F009
:102EF00047FD20A806F0C3FC20A90246204807F0A1
:102F00005EFC14211E4807F06FFC9CE70DF11E03C8
:102F100007AA09A90AA805F099FD0028AED1BDF8B5
:102F20001E30102BF2D1BDF81C30202BA6D1284624
:102F3000099918AA06F047FA051E18BF01256D4227
:102F40009EE7294604F1080031B0BDE8F043FFF7E1
:102F500085BD00287FF431AFE379012B3FF42EAF1C
:102F6000052B7FF42AAFFFF75DFD4FF400500021E1
:102F700005F066F80120FDF71DFF00BF2C130020AF
:102F8000E4120020B00000203DB8F396780700203E
:102F90007BB7000082B7000087B700008CB7000045
:102FA00094B70000A0B700002DE9F341274FDFF8E8
:102FB000A080284E01233B70274B00240546009437
:102FC00018603B7813B902B0BDE8F081234BC4F51B
:102FD0008061C3F80086C3F80486C3F80886C3F886
:102FE0000C86C3F81086C3F81486C3F81886C3F895
:102FF0001C862B6801AA0131301998470028019BD3
:1030000001DC002BDDD004442BB940F201439C428B
:10301000D7D10024D5E73378062B09D17378092B53
:103020000BD1002300936946A01EFFF761FE04E068
:10303000042B02D17378142BF5D00128E9D1009923
:1030400007480239FFF798FEE3E700BF6D22002032
:103050003546526E6F2600203013002000000140DC
:103060007022002030BFFFF7FDBF00BF074A936802
:1030700093F90E10002907DB526993421FBF044ADF
:10308000536843F080535360704700BF841E002094
:1030900000ED00E070B5264B15469A6A12F0100F4D
:1030A0009A6A14BF1124102412F0080F9A6A18BFEC
:1030B0001224920706460AD5586B9A6A140634D52C
:1030C00019B19A6A22F080029A62132401E06FF02B
:1030D0001500174B9A6A12F0010F9A6A18BF142450
:1030E00012F0200F9A6A18BF1524D20602D49B6AE8
:1030F0009B070AD50E4B5B68190506D5314600F0D3
:1031000091FA10B180F309880224094B9A6A920659
:1031100042BF5A6A22F400525A629A6A42F0FF028F
:103120009A6200232B70204670BD6FF01500CCE72B
:1031300000ED00E0134B9A6A12F0007F9A6A14BF08
:103140001E201D2012F0807F9A6A18BF1F2012F4E3
:10315000002F9A6A18BF212012F4802F9A6A18BF94
:10316000222012F4003F9A6A18BF232012F4803FF5
:103170009A6A6FEA02426FEA12429A6218BF2420EA
:10318000704700BF00ED00E010B5194B0246986A89
:103190009C6A10F4805F14BF1720162014F4006F8F
:1031A0009C6A18BF1820A40509D5986B986A00047A
:1031B00004D51AB19A6A22F400429A6219200C4B83
:1031C0009A6A12F4806F9A6A18BF1A20D2050CD43A
:1031D0009B6A13F4005F18BF1C20054A936A43F4EE
:1031E0007F43936200230B7010BD1B20F5E700BFE7
:1031F00000ED00E070B5454B5B688AB00546C3F34F
:103200000803002686F31188BFF36F8F02F07F401A
:10321000B0F17F4F11D102F00C0008280DD010073B
:103220004CBF0D4601260022033B8DF80720032BDF
:1032300005D8DFE803F01E5D615A3546F3E7002448
:103240009DF807309BB92022294602A806F045FBCD
:10325000099B002E54D0C3F3080222B96FEA53230E
:103260006FEA4323099302A9204606F0C0FA0AB088
:1032700070BD264BDA6A9107E1D4DA6A002ADEDBF8
:10328000DA6A5200DBD55A69A96942F480725A6140
:10329000BFF34F8FBFF36F8F5A6931F8021C22F4CE
:1032A00080725A61BFF34F8FBFF36F8F4DF602727A
:1032B00091420AD09A6AD2B24AB10DF107020121B5
:1032C0002846FFF7E7FE0446BAE72C68B8E79A6A93
:1032D00012F47F4F05D00DF107010120FFF754FFD5
:1032E000F1E79B6AB3F5803FA9D3FFF723FFEAE735
:1032F0000DF107020021E3E70DF107010020EDE7E2
:1033000023F4FF7323F00103ACE700BF00ED00E0FE
:10331000024A536943F010035361704700ED00E027
:10332000EFF30880EFF3098101B57246FFF762FF02
:1033300001BD00BF002080F31488BFF36F8F03F03E
:1033400045F800200D490860BFF34F8F0C4880F30B
:10335000088800F03DF8202080F3118809484FF4D8
:103360000461401880F30988EFF3148002210843B8
:1033700080F31488BFF36F8F00F01CF994ED00E028
:103380000065002040330020BFF34F8F0549064BF6
:10339000CA6802F4E0621343CB60BFF34F8F00BFF3
:1033A000FDE700BF00ED00E00400FA050749D1F891
:1033B00090200023C2F307221846934200DB704797
:1033C000C1F89830C1F8A0000133F6E700ED00E045
:1033D00008B572B6002383F31388FFF7E7FF144B99
:1033E0004FF0FF32C3F88020C3F88420C3F8882050
:1033F000C3F88C20C3F89020C3F89420C3F8982019
:10340000C3F89C20C3F88021C3F88421C3F8882125
:10341000C3F88C21C3F89021C3F89421C3F89821F4
:10342000C3F89C2162B6BFF34F8FBFF36F8F08BD07
:1034300000E100E0084B9B6883420BD1EFF305836A
:1034400043B1064B5A6842F080525A605A6A22F4DD
:1034500000425A6207F02FBC841E002000ED00E0FD
:10346000094A93686FF00A019967084958674B68E1
:1034700043F080534B60002383F31188BFF36F8FB9
:103480009368986F704700BF841E002000ED00E035
:1034900010B50446EFF31183202383F31288BFF3A2
:1034A0006F8F094B58699860084B4FF000625A6063
:1034B0000022436F426783F31188BFF36F8F00F0E0
:1034C00015F9204610BD00BF841E002000ED00E06D
:1034D0000B498A684FF030001044EFF3098C80E804
:1034E000F01F74467046FFF7D3FFA64604498A686A
:1034F00002F1300090E8F01F8CF30988704700005B
:10350000841E00201EF0040F0CBFEFF30880EFF3C1
:103510000980816911F8021C0229FFD001B506F06B
:103520006CF901BD40B2002807DB044A41090123C0
:1035300000F01F00834042F82130704700E100E0B6
:1035400040B200280CDB4309064900F01F0020337D
:103550000122824041F82320BFF34F8FBFF36F8FCA
:10356000704700BF00E100E0054B420900F01F007A
:1035700053F82220012303FA00F01040704700BFE7
:1035800000E100E040B20028A8BF00F1604001F176
:103590000101B8BF064B4FEA4111ACBF00F56140D5
:1035A00000F00F00C9B2B4BF195480F8001370477F
:1035B00014ED00E00B4A08B50B4B22F07F029A6035
:1035C000BFF34F8FBFF36F8FD3F8882022F47002C0
:1035D000C3F8882003F0C2FE04F00CFE00F05CF893
:1035E00003F000FF0000000000ED00E042F8203C86
:1035F000009B42F81C3C0A49019B42F8183C029B84
:1036000042F8143C21F001014FF0807342F8043C71
:1036100042F8081C0023203A02654367704700BF48
:10362000FD8F0000094A0346906870B113F1160F30
:10363000406E05D0A0F140029A4205D8834203D2E1
:10364000814228BF0020704700207047841E002060
:1036500008B50B4B0E461546986000F047F82C460F
:1036600086F309884FF00000064B984720464FF03C
:1036700000014FF000024FF00003034C204700BF51
:10368000841E002019980000FD8F0000014B1022BD
:103690001A61704700ED00E0044800232021C218A1
:1036A0000133302B82F80013F9D1704700E100E0BC
:1036B00008B5EFF30583064A103B02EBC30152F84D
:1036C000330049688847BDE80840FFF7CFBC00BF1A
:1036D000CCAF0000024B034A0348012100F076B84A
:1036E00000000420000000203CB30000426E054BA7
:1036F000403A1A60044A4021C3E9011218460121E8
:1037000000F06EB83413002000000B15084AC2F810
:1037100098000B6823F01F03034343F01003C2F823
:103720009C308B6843F00103C2F8A030704700BFA3
:1037300000ED00E02DE9F043DFF8608085B00E4633
:103740001F4604464FF00009B14523DA6068D8B13E
:103750003FB1411E08421BD11F2819D923681942C5
:1037600016D12368019306F07AF8A3680343039304
:10377000D8F89050C5F30725D0B2013DA84207D82C
:1037800001A9FFF7C3FF421C09F101090C34DBE773
:103790006FF01502104605B0BDE8F08300ED00E0C3
:1037A000044B0522C3F89420BFF34F8FBFF36F8FF4
:1037B000704700BF00ED00E0BFF35F8F024B0022B7
:1037C000C3F89420704700BF00ED00E010B5034C33
:1037D00001232278FFF7AEFF207010BD702A002071
:1037E00008B50B4A00231278FFF7A4FF10F1160F5B
:1037F00007D0084A0021D2F89030C3F3072398423B
:1038000000DB08BDC2F89800C2F8A0100130F2E752
:10381000702A002000ED00E02DE9F043534B544C9A
:10382000D3F890302568C3F307239D4285B000F29A
:103830009A80FFF7C1FF00200C2685421AD14D4C1B
:103840004D4F25706846FDF7F9FCDFF82081DFF861
:103850002C9106460025AE4213D12378434900201F
:10386000D1F89020C2F30722934276DBFFF798FF4E
:10387000002042E0616806FB0011FFF747FF0130BE
:10388000DBE7009800EB05114FEA051CCB683B40D5
:10389000B3F5000F48D00AD8B3F5001F30D0B3F508
:1038A000800F36D0B3F5801F10D00135D3E7B3F1C8
:1038B000807F42D0B3F1007FF7D150F80C30886898
:1038C0004A6805F0CCFF40F4802009E050F80C3045
:1038D00088684A6805F0C3FF40F0885040F4302003
:1038E000CDE901230390D8F890302078C3F3072363
:1038F000013B98422AD96FF0150005B0BDE8F0836E
:1039000050F80C3088684A6805F0A9FF40EA0900C1
:10391000E6E750F80C3088684A6805F0A0FF40F0F0
:10392000007040F40030DBE750F80C3088684A68DB
:1039300005F095FF40F08270D2E750F80C308868AF
:103940004A6805F08CFF40F08870C9E701A9FFF7CD
:10395000DDFE237801332370A7E7C1F89830C1F862
:10396000A00001337CE74FF0FF30C6E700ED00E038
:1039700048B30000702A00200000F0FF000008118A
:103980000CB410B586B009B90DF10B000024CDE9D7
:10399000040109AB089A009404A905480393FCF7B5
:1039A000E7FF049B1C7006B0BDE8104002B07047F2
:1039B00003990000024B0122C3F840250020704704
:1039C00000E0014020B1034B800143F001031847A0
:1039D000704700BF60B10000020600F07F0312D5FF
:1039E000082B05D1010700F00F0306D50E487047DC
:1039F00010F0780F12D100F00F034C2000EB4310B1
:103A00000A4B18447047082B05D1020700F00F033A
:103A100006D50748704710F0780FF6D000207047A1
:103A2000044800EB431070478C1400204013002022
:103A3000AC150020AC1400200149024807F04AB838
:103A400068130020700400200146014806F0DFBF23
:103A5000F402002002480022002303F025BE00BF2C
:103A6000F402002013B5124800F0D8FE114B984222
:103A70001AD1114803F00EFB0024104803F050FB4C
:103A80000F49104800944FF0FF334FF4806203F069
:103A900083FF0D490B4807F03FF80C480C4906F02E
:103AA000FDFF204602B010BD6FF00400FAE700BF32
:103AB000B93C00000000AD0BC1B7000068B30000C6
:103AC000002F002070040020B3B70000681300200E
:103AD000D53D000010B50E49BFF35B8F002351E8C0
:103AE000002F012A03D141E800300028F7D1BFF3AD
:103AF0005B8F0CD151F8044C1439204605F080FB43
:103B0000783004D12046BDE8104005F055BB10BD0B
:103B10006013002038B5002464F07F00C0B2FFF7C6
:103B20005BFF013405F0FAFE082CF5D10E4D0024A0
:103B3000E0B2FFF751FF036903B90561013405F0F5
:103B4000EDFE082C05F14005F2D1084805F0E6FE2F
:103B5000074BD3F87C2212B9064AC3F87C220648E8
:103B600005F0DCFE002038BDD01900208C140020A8
:103B700040130020D0150020AC15002010B5054CD6
:103B8000FFF768FF20B14168204606F094FEF7E792
:103B900010BD00BF6402002007B500230E480022BC
:103BA00001A903F09FFC90B1FFF7E8FF0A4800224B
:103BB000002301A903F096FC38B901980423406062
:103BC0000374FFF741FFFFF737FF002001E0019882
:103BD000406003B05DF804FB64020020022810B5C9
:103BE00011D8094B1C5CFFF7D7FF60B100220274AB
:103BF0000472FFF729FF054B93F824301BB1BDE891
:103C00001040FFF719BF10BDBEB7000040130020E1
:103C1000F8B5877806463846FFF7DEFE3B06F578AE
:103C2000044612D5002D43D1FFF7B6FF0346002806
:103C30003ED00122A5770274032202739C60FFF735
:103C400003FFBDE8F840FFF7F7BE4DB1012D2FD1BE
:103C5000FFF7A2FF034658B3657705740573EDE7D8
:103C6000FFF79AFF20B3B278124B12F0800F02F0E8
:103C7000080111D041B1D3F8A836E36001230374E1
:103C8000022303738460DAE702F00F02142101FBC0
:103C90000233D3F80836F0E711B1D3F8A837ECE7D0
:103CA00002F00F02142101FB0233D3F80837E4E7D6
:103CB000F8BD00BF00700240F0B5064689B014227E
:103CC000002103A805F014FE3378013B052B21D811
:103CD000DFE803F07A0314146A1603238DF8143016
:103CE0000024FFF759FF0346A0B1047400F1080255
:103CF000DDE9050182E8030018461DE00423EDE735
:103D0000B7783846FFF768FE837A044623B1013B53
:103D1000022B43D909B0F0BD3B06F57813D5002D31
:103D2000F8D1FFF739FF03460028F3D00122A57729
:103D30000274032202739C60FFF786FE09B0BDE89F
:103D4000F040FFF779BE55B1012DE3D1FFF724FF15
:103D500003460028DED0657705740573EBE7FFF7AF
:103D60001BFF07460028D5D00123037402230373E9
:103D7000846004F10C01B07805F031FE134AE1686B
:103D8000B2F88C328B4206D95B1AA2F88C3201F061
:103D900099F83846D0E7A2F88C52FAE7304609B0D5
:103DA000BDE8F040FFF734BF01A801F065F89DF8C9
:103DB0000530052B04D19DF8043013F0600FA9D015
:103DC000034B059301248CE702248AE7401300206B
:103DD000AC1400202DE9F043A74CDFF8A09285B089
:103DE0008046FFF737FE064610B905B0BDE8F08300
:103DF00094F82530327C3BB9002A00F08880716845
:103E00009E4806F058FDECE7042A44D8DFE812F09B
:103E10007F000500020118014201337BB568032BC6
:103E200039D8DFE803F0023F5C616F6908220021A6
:103E3000384605F05DFD924B9248D3F880243A70E5
:103E4000D3F884247A70D3F88824D3F88C1442EA07
:103E500001227A80D3F89024D3F8941442EA012204
:103E6000BA80D3F89824D3F89C3442EA032308227A
:103E7000FB803946EA6005F030FD2B68687A002146
:103E8000984797F90030002B08DBFB8833B1A4F882
:103E90008C3201F017F871684846B2E70023A4F8A5
:103EA0008C32F8E76B7F002BF5D02B7F002BF2D004
:103EB00000276F774FF0FF3273482F774FF0FF33B3
:103EC00005F03FFD6B6901936B68CDE9023701A9ED
:103ED000687A00F0F9FC6C4805F035FDDBE72B68EB
:103EE0000121687A9847D6E7AB7A6BB9EB7F5BB96B
:103EF00065484FF0FF324FF0FF3305F022FD00F030
:103F0000E7FF614805F01FFD2B680221E9E7327ADF
:103F1000042AC0D8DFE802F059032367730000F0D9
:103F20004BFC05460028B6D100F086FBBFF35B8F43
:103F30005649012351E8002F002A03D141E80030FF
:103F40000028F7D1BFF35B8FA5D141F8085C41F899
:103F5000105CE0696361143905F0D7F89BE7002530
:103F600065F07F00C0B2FFF737FD037A13B1407AE6
:103F700001F012F90135082DF2D194F854311BB13A
:103F800094F8550101F008F90025E8B2FFF724FD87
:103F9000037A13B1407A01F0FFF80135082DF4D10E
:103FA00094F874321BB194F8750201F0F5F8002012
:103FB00000F0E6FB012384F825302368002B3FF452
:103FC0006AAF00210220984765E7002584F8255054
:103FD00001F048F8FFF77EFD2368002B3FF45BAF4C
:103FE00029460420EFE7002B3FF455AF00F0EEFB2D
:103FF0002368002B3FF44FAF00210520E3E7226840
:10400000002A3FF448AF002B3FF445AF00210620C3
:10401000904740E708F110054FF0FF334FF0FF32B3
:10402000284605F08EFCFFF775FD284605F08BFC51
:1040300058F8283C002B3FF42EAF00210120C2E7A6
:1040400094F874327BB1012584F8895284F888523F
:10405000FFF7A2FD38B10E4A057405738260FFF7C1
:10406000F3FCFFF7E9FC58F8283C002B3FF413AFB2
:1040700000210A20A7E700BF4013002064020020AF
:1040800000700240441300207813002060130020C9
:10409000AC15002006F041F800F0E4FF00F0C2FA91
:1040A000FFF76CFDFFF736FD06F030F8014800F031
:1040B000B5FBF0E6B93C000038B5164D95F8244044
:1040C0002CBB05F1380006F02EFC204601F0B6F9B5
:1040D00022460121E8612720FFF754FA06F016F87E
:1040E000FFF718FD044610B9012385F824300A4B68
:1040F0001B680BB1FFF7A0FC4FF08043D3F83834B6
:10410000DB0702D50020FFF769FD204638BD0024FB
:10411000FBE700BF40130020F402002010B50D485B
:104120004FF0FF324FF0FF3305F00BFCFFF726FD99
:1041300000F042FB08B100F095FFFFF7CBFC05F063
:10414000ECFF0548002480F82440383005F0FBFBE4
:10415000204610BD7813002040130020074B93F831
:1041600024203AB193F82530002B14BF00206FF0C3
:10417000120070476FF01200704700BF401300201C
:1041800038B5104B93F824300446C3B1057828465F
:10419000FFF722FC10B96FF0150038BD4572237986
:1041A0008372638843602078618810F0080F02D121
:1041B0004B1E0B42EFD105F00DFC0020EDE76FF038
:1041C0001200EAE74013002038B5124B93F8242080
:1041D0000546CAB193F82530B3B1FFF7FDFB04469D
:1041E000A8B1837A012B12D007D9023B012B07D942
:1041F0006369A3610020E06038BD00F06FFEF7E75F
:10420000284600F00DFEF3E76FF01200F4E76FF0C0
:104210001500F1E74013002038B50E4B93F8242029
:10422000054682B193F825306BB1FFF7D5FB68B135
:1042300015F008040AD1284600F014FE284600F0C4
:10424000E3FF204638BD6FF01200FBE76FF015006A
:10425000F8E700BF4013002038B50C4B93F824203A
:1042600005460C4662B193F825304BB1FFF7B4FB1D
:1042700048B144B1284600F0DBFD2070002038BD75
:104280006FF01200FBE76FF01500F8E74013002015
:1042900070B5134E96F824300446C3B1FFF79CFB6B
:1042A0000546B8B1230705D4204600F0DBFD2046C3
:1042B00000F0AAFF2B7A83B901232B7296F82530E0
:1042C0000BB9002070BD204600F066FFF9E76FF0E3
:1042D0001200F7E76FF01500F4E76FF07700F1E7F1
:1042E000401300202DE9F043DFF8E4801E4698F8E3
:1042F000243085B0074689461546002B61D098F8D2
:104300002530002B5DD003065ED5FFF765FB044624
:10431000002859D0037A002B56D04FF0FF334FF0CE
:10432000FF3208F1380005F00CFBA37F4BB108F118
:10433000380005F008FB6FF00A04204605B0BDE820
:10434000F083A37AC5B13BB30123A3774FF00008F4
:1043500001A93846CDE90195CDF80C8000F0B4FAFA
:104360001C4B984229D084F81E801EBB6FF00404B9
:10437000194805F0E8FAE0E7E27F02B1E577002BA3
:10438000E2D100F0B1FDB842DED000F0A1FD12484C
:1043900005F0D9FA0024D0E7B8F80A30AB42F0D9DA
:1043A0006268B5FBF2F302FB1353002BE9D1012342
:1043B000E377E6E7C6F80080D8E706B13560002469
:1043C000D6E76FF01204B8E76FF01504B5E700BF49
:1043D000401300200000AD0B781300202DE9F041C0
:1043E0001D46204B174693F824200E46002A33D052
:1043F00093F8253083B3030631D401B97FBBFFF7AF
:10440000EBFA044658B3037A4BB34FF0FF33164828
:104410004FF0FF3205F095FAE3689F42B84628BF97
:10442000984646B93FB905B12B600F4805F08BFAA5
:104430000020BDE8F081A1694246304605F04DFA02
:10444000A3694344A361E368A3EB0803E360002D81
:10445000EBD0C5F80080E8E76FF01200E9E76FF0F5
:104460001500E6E7401300207813002070B51E4DBC
:1044700095F82420034682B395F825206AB31B06DD
:104480002ED4FFF7A9FA044650B3037A43B34FF092
:10449000FF334FF0FF3205F1380005F052FAE368C0
:1044A000B3B9012663692677A361637F83B1FFF700
:1044B00073FB30B905F1380005F045FA6FF00B00D9
:1044C00070BD067484600673FFF7BEFAFFF7B4FA96
:1044D000064805F038FA0020F2E76FF01200EFE727
:1044E0006FF01500ECE700BF4013002078130020A8
:1044F00010B5084B93F824300C462BB1FFF76CFA3B
:1045000028B10460002010BD6FF01200FBE76FF0CF
:104510001500F8E740130020014B1860704700BFFA
:104520004013002008B5074B93F8243023B1FFF760
:1045300053FA20B1406808BD6FF01200FBE76FF03E
:104540001500F8E7401300204FF08053D3F83021D6
:10455000082A06D1D3F83431052B04D8034AD05C9D
:104560007047002070470120704700BFC2B70000AD
:10457000064B10F0800FA3F1D80208BF134600F0DD
:104580000F00182202FB0030704700BFE81C00201B
:10459000EFF31180202383F31288BFF36F8F0A4B50
:1045A000D3F8001C032261B949F27531C3F8001C2D
:1045B000C3F8142DC3F8001C80F31188BFF36F8F6C
:1045C0007047C3F8142DF7E700E00640EFF31180C1
:1045D000202383F31288BFF36F8F0A4BD3F8001C9C
:1045E00061B949F27532C3F8002CC3F8141DC3F841
:1045F000002C80F31188BFF36F8F70470022C3F83F
:10460000142DF6E700E006404FF08053D3F8303128
:10461000082B02BF024B0022C3F81C2C704700BFBE
:1046200000700240024A00231360024A1370704770
:10463000C81D0020752A002008B54A4B4FF40062BF
:10464000C3F80024FFF780FF08B1FFF7A1FF4FF088
:104650008053D3F83031082B18D1EFF31180202389
:1046600083F31288BFF36F8F3F4BD3F8001CC02237
:1046700000296ED149F27531C3F8001CC3F8142C1F
:10468000C3F8001C80F31188BFF36F8F354B0122F4
:10469000C3F80025D3F800241205FBD54FF40062BF
:1046A000C3F800244FF08053D3F83031082B17D1D2
:1046B000EFF31180202383F31288BFF36F8F2A4B0F
:1046C000D3F8001C002947D149F27532C3F8002CF9
:1046D000C3F8141CC3F8002C80F31188BFF36F8F4C
:1046E000FFF732FF30B1FFF771FFFFF72DFF08B181
:1046F000FFF74EFF4FF08053D3F83031082B194BA2
:104700000AD140F2E372C3F800284022C3F804281B
:10471000BFF36F8FBFF34F8F8022C3F81C25012298
:10472000C3F83025114B40F2FF121A60104B0021E4
:104730001960104B1970FFF767FF0F4B19700F4B83
:1047400002221A70FFF700FF50B1BDE80840FFF7E2
:104750003DBFC3F8142C95E70022C3F8142CBBE727
:1047600008BD00BF0070024000E00640C41D0020EC
:10477000C01D0020712A0020732A0020752A002005
:10478000094B002210B51A70084A094B094C002841
:1047900008BF1346C4F800332720FEF7C3FE0123E9
:1047A000C4F8043510BD00BF742A0020FDFFDF01EE
:1047B000FDFFFF0100700240034B1878012894BFF1
:1047C00000200120704700BF752A002010B5EFF3CC
:1047D0001181202383F31288BFF36F8F0D4B1B7859
:1047E00003F0FF0083B10C4BD3F8002412F40072E5
:1047F0000AD10124C3F82C45D3F82C45D3F8004442
:10480000A40502D5C3F82C25002081F31188BFF33D
:104810006F8F10BD742A002000700240F8B51C4B49
:104820001C7894BB1B4A106001221A7040F2FF17DB
:10483000264664F07F0514F0080FEDB214BF394628
:104840004021284605F0C6F82846FFF791FE0134BE
:10485000092C867506730661EBD1002440F2FF1720
:10486000254614F0080FE6B214BF39464021304601
:1048700005F0B0F83046FFF77BFE0134092C857552
:1048800005730561EDD10448F8BD0448FCE700BF9D
:10489000752A0020C81D00200000AD0B0500AD0BDF
:1048A000084B10F0800F00F00F0114BFD3F8102553
:1048B000D3F8142501238B40134214BF012000209C
:1048C000704700BF007002402DE9F8430246EFF345
:1048D0001187202383F31288BFF36F8F030703D15F
:1048E000184B1B78834229D1174B184E1C6835682A
:1048F000104605F067F8E443A4B24FF001092C43D9
:1049000009FA00F814EA08041AD11046FFF730FE3D
:1049100080F80C90034607C91C6183E807009C756A
:104920000B4B0C4845EA080580223560C3F804218A
:1049300087F31188BFF36F8FBDE8F8830648F7E768
:104940000648F5E7732A0020C41D0020C01D002082
:1049500000E100E00000AD0B0A00AD0B0B00AD0B59
:1049600010F0080F074B06D0D3F8C00410F4803FB6
:1049700018BF0020704700F00F0000F5947053F846
:1049800020007047007002402DE9F74FA84BD3F884
:10499000604134B10022C3F86021D3F86C44C3F8FD
:1049A0006C44D3F828214AB10022C3F82821A14B36
:1049B000187805F007F8012383401C439E4F9F4E53
:1049C0003D7897F9008015F0080143D1B8F1000F48
:1049D00005F00F032EDA9A4A52F8230020B342F86A
:1049E00023101422534303F1804303F51C33D3F8FF
:1049F0000836944A117803F001034B401370FFF717
:104A000003FE914802F082FE2846FFF7B1FD837D48
:104A1000032B37D1284604F0D5FF012303FA00F019
:104A2000336823EA00033360DFF82092DFF8208246
:104A300001255FE0874A52F823000028F4D042F8AD
:104A400023101422534303F1804303F51C33D3F89E
:104A50000837CEE7B8F1000F754B09DBD3F85021CA
:104A6000002AE1D00022C3F85021D3F8A837C0E7CC
:104A7000D3F82C21002AD7D00022C3F82C21D3F858
:104A8000A836B6E7037BDBB9284604F09BFF012379
:104A900003FA00F03368B8F1000F23EA0003336033
:104AA00001DA882DC0D106238DF8043000238DF85B
:104AB0000730674B8DF806501B6801A89847B3E78D
:104AC000002DB1D15A4B0122DA64ADE794FAA4F07B
:104AD000D9F80020B0FA80F005FA00F31A430F2845
:104AE000C9F8002024EA0304326840F3B780134277
:104AF00000F0C580002CE9D14D4BD3F800215AB10C
:104B0000C3F80041544B1C704A4B1C7001230193A5
:104B10004F4B01A81B689847454BD3F85421EAB185
:104B20000022C3F85421D3F80413890216D58DF856
:104B30000420D3F82025ADF80620D3F8C034002B8C
:104B4000D9F8003014BF4FF001224FF480721343A4
:104B5000C9F800303E4B01A81B689847344BD3F886
:104B60005821002A2ED00022C3F85821D3F800443F
:104B7000C3F80044E30508D5374B01221A7002231D
:104B80000193334B01A81B689847A50508D5324B04
:104B900000221A70032301932D4B01A81B6898472C
:104BA00060050FD52C4B1A7862B100221A70204B89
:104BB0000122C3F808259A6504230193244B01A818
:104BC0001B6898471A4BD3F85C310BB31E4B9B689C
:104BD00013B93B7859061BD0154B0022C3F85C2152
:104BE000D3F88034134A23F07F031370336823F023
:104BF00001133360D9F8003023F4803343F001030C
:104C0000C9F8003005230193114B01A81B68984790
:104C10003268D9F800301A4207D00B48002200232E
:104C200002F098FD002800F09F8003B0BDE8F08FEF
:104C300000700240732A0020722A0020C01D00204C
:104C400008710240712A0020E4020020C41D0020E7
:104C5000C81D002030710240742A002013407FF4E8
:104C600049AF062260F07F018DF804208DF8061010
:104C70008DF80730D8F8003001A898473AE70623A6
:104C8000A0F110018DF804308DF806108DF8075052
:104C9000F0E718F0012314BF93FAA3F898FAA8F8E4
:104CA000B8FA88F8B8F10F0F18D9A8F11005EDB2CD
:104CB0002846FFF75DFC04462846FFF751FE63686F
:104CC000B4F814C02268984230D81B1A00EB020EC8
:104CD00011466360C4F800E082462AE048F080058F
:104CE0002846FFF745FC4368B0F814A001689A45D0
:104CF00028BF9A4601F06043B3F1005F044604D038
:104D00004348524604F0E9FD414922686368524431
:104D10002260A268A3EB0A03D20768B2636033D5AE
:104D2000BAF1000F32D1002323732FE011464FF068
:104D3000000A604525D1003B18BF01231AB3504536
:104D400021D9012303FA08F32BEA03033360062376
:104D50008DF804302F4B8DF8065002221B68A27587
:104D60008DF8072001A89847D6F800B0D9F8003090
:104D70001BEA03088DD1284803B0BDE8F04F02F0CC
:104D8000C5BC0023DAE768B2002BCCD04FF08053CB
:104D9000D3F83031082B02BF204B8222C3F81C2CE1
:104DA000D9F800303D70012202FA08F823EA08031E
:104DB000C9F80030236915F0080F53442361174BDD
:104DC00017D1002805F00F054FF0140000FB053047
:104DD000B5BF03EB85030A35C0F80016C0F800170D
:104DE000B5BFC0F804A6C0F804A75A6043F8252050
:104DF0001BE70028B5BFC3F8A016C3F8A017C3F877
:104E0000A4A6C3F8A4A7B4BF5A629A640DE700BF72
:104E1000D01B0020C81D0020E402002000700240CA
:104E2000024B40F48070C3F81805704700700240D0
:104E3000030713D400F00F0310F0800F084A0BBFD4
:104E400003F5887303F5847302EB830252F82300A1
:104E500008BF5068003818BF012070470020704715
:104E600000700240034BC3F80C0540F48070C3F897
:104E70000C0570470070024010B50822002104465E
:104E800004F036FD0E4BD3F880242270D3F884242E
:104E90006270D3F88824D3F88C1442EA012262802D
:104EA000D3F89024D3F8941442EA0122A280D3F8D4
:104EB0009824D3F89C3442EA0323E38010BD00BF5A
:104EC00000700240014B0122DA647047007002401A
:104ED000014B01221A65704700700240014B01220C
:104EE0005A65704700700240014B1878704700BF48
:104EF000732A002010B50246EFF31184202383F3B8
:104F00001288BFF36F8F04F05DFD0B49012303FA94
:104F100000F00B6823EA00030B6012F0080101BFE8
:104F200002F00F02054B02F5947243F8221084F34D
:104F30001188BFF36F8F10BDC41D002000700240A8
:104F4000F7B50146EFF31185202383F31288BFF3F1
:104F50006F8FFFF70DFB0646084604F033FD012274
:104F600011F0800F02FA00F22D4818D1036832EADE
:104F700003040AD00846FFF7BDFF0323B37585F38A
:104F80001188BFF36F8F03B0F0BD2649347323EA55
:104F9000020303600B6823EA02030B60EDE70B07D3
:104FA00015D48029204B2FD001F00F0404F2DA34FD
:104FB0006400C3F80048D3F80448D3F80478E4B296
:104FC00044F002043C43C3F80448D3F80438154FB6
:104FD00004683B6864EA030C1CEA020FCFD0134359
:104FE0003B60002333730323B3758DF807300F4BF9
:104FF0008DF8061024EA0204062204601B688DF86E
:10500000042001A89847BAE740F2B474C3F80048F6
:10501000D3F80448D3F80478E4B244F00404D1E7A8
:10502000C01D0020C41D002000700240C81D0020CB
:1050300038B50446094D4FF0FF324FF0FF33284694
:1050400002F088FB2046FFF77BFF284602F05EFB5C
:10505000034B8022C3F8042138BD00BFE4020020C6
:1050600000E100E0F8B54FF0FF324FF0FF332B487E
:1050700002F070FB2A4B8022C3F884212720FEF720
:1050800073FA98B1274E284B34681B68240C24040B
:105090001C43012764BB254D40F2FF1333602720DA
:1050A000C5F80445FEF74CFAC5F80043204A1378CA
:1050B0008BB11E4B0021C3F808110121C3F8002653
:1050C000C3F804165960D3F808110029FBD0002159
:1050D000C3F808111170154B0022C3F80025FFF723
:1050E00093FA0E4802F012FB124B01221A70F8BD1F
:1050F00094FAA4F5B5FA85F50F2D2846C6BFA5F19B
:105100001000C0B240F08000030701D4FFF718FF81
:1051100007FA05F524EA0504BCE700BFE402002015
:1051200000E100E0C41D0020C01D0020007002400E
:10513000712A0020752A002010B504464FF0FF3276
:105140004FF0FF33114802F005FB2046FFF7F8FE51
:1051500004F00F02012393400D4A14F0800F14BF96
:10516000D2F81015D2F814156FEA030315BF0B40DF
:105170000B40C2F81035C2F81435044802F0C6FAE4
:10518000044B8022C3F8042110BD00BFE4020020BC
:105190000070024000E100E070B50446FFF780FBBC
:1051A00068B904F00F02012514F0800F144B05FAC2
:1051B00002F205D0D3F810150A43C3F8102570BDCC
:1051C000D3F814150A43C3F81425631E062BF6D82A
:1051D000EFF31186202383F31288BFF36F8F2046ED
:1051E000FFF788FE204604F0EDFB064A1368854071
:1051F00023EA0503136086F31188BFF36F8FDEE7A0
:1052000000700240C01D0020030610B5044605D4FE
:10521000FFF70EFE10B12046FFF76CFE014BC3F8FE
:10522000184510BD00700240084B70B5C31A0D46FA
:1052300007499B10044659430648402204F0EEFB00
:105240002B4601462046BDE870401847E01D00206F
:10525000B76DDBB654AF000073B50C4C0C4A40235D
:10526000041B00930D460B460A49A41061430646F1
:10527000094804F0FFFB011E05DA30462B4602B058
:10528000BDE87040184702B070BD00BFE01D0020AF
:10529000DF9A0000B76DDBB654AF000010B5EFF336
:1052A0001184202383F31288BFF36F8F074A13689A
:1052B00023F00201DB07116002D4012004F08AFE12
:1052C00084F31188BFF36F8F10BD00BF301E002024
:1052D000002270B5012104461046FEF753F90F482D
:1052E00001F0FEF90E4B984215D101F009FA26693A
:1052F0000C49304603F0F6FE00280BDB012535642F
:105300002469084904F11C0003F0ECFE002801DBCD
:10531000E564002070BD6FF00400FBE7215400003D
:105320000000AD0B6CB300001FB500220123CDE9D6
:105330000223094ACDF800D06B46CDF804D004F022
:10534000C7FB002805DB4FF480420023684602F0CB
:1053500001FA05B05DF804FBFD9A000030B4104B73
:105360000C2202FB003301460020D3E90E52986361
:10537000EFF31180202484F31288BFF36F8F1C6C2D
:1053800004F0C00444F002041C6480F31188BFF3ED
:105390006F8F1DB12B46034830BC184730BC704797
:1053A000E01D002054AF000010B4EFF31182202361
:1053B00083F31288BFF36F8F1748016841F002042E
:1053C0000460C80707D482F31188BFF36F8F0120F0
:1053D00010BC01F0ADB94FF08041D1F80C04D1F808
:1053E0000C14C907EFD5EFF3118083F31288BFF3D4
:1053F0006F8F0A490B6C03F0C00343F002030B6488
:1054000080F31188BFF36F8F82F31188BFF36F8F22
:10541000002010BCFFF7A2BF301E0020E01D0020BE
:1054200010B1012804D07047034B1B6C5B0701D1FE
:10543000FFF794BF704700BFE01D0020024AC3B2CF
:105440001C2003FB00207047E01D00202DE9F041E7
:105450003849BFF35B8F0746012251E8003F41E81E
:1054600000200028F9D1BFF35B8F33B932493348AC
:105470004B60CB608A6003F048FE7B1E012B2BD86B
:10548000012F07D14FF08043D3F81C3403F00303FE
:10549000012B21D005F03AFB0546F8B9284B1B78C3
:1054A000E3B14FF080430222C3F808230646DFF839
:1054B00094804FF08044D4F81824D4F81834D203E0
:1054C00015D503F00303012B01D0012F0FD155B3E4
:1054D00086F31188BFF36F8FBDE8F081EFF311867B
:1054E000202383F31288BFF36F8F0125DFE7ADB16F
:1054F000304604F0A5F9D4F81835002BDBD1D4F8E8
:105500000421002AD7D0C4F80431D4F8043101238F
:10551000C4F81835C8F88031A360CCE700212120F9
:1055200002F08EFDE7E74FF080430222C3F8042328
:10553000D2E700BFDC1D0020CC1D0020FC1D002098
:105540009B2A002000E100E0024B0B600123136066
:10555000704700BF341E002000487047B8B30000F9
:1055600010B5012211460648064C05F05BFA04F01E
:10557000BDFD206004F0B6FD6060002010BD00BFDE
:105580003C1E0020341E00204FF08042D2F810153F
:10559000D2F8103501F01E0123F01F030B4343F036
:1055A0000103C2F81035024B00221A70704700BF89
:1055B000762A00204FF08053D3F83031082B20D1C9
:1055C0004FF08042D2F81015CB071AD5D2F810351B
:1055D00001F01E0123F01F030B43C2F81035D2F86F
:1055E00008315BB1D2F8103523F01F030B4343F0B1
:1055F0000103C2F810356FF08B007047024B012297
:105600001A700020704700BF762A00202DE9F04173
:105610000D46164604F066FD31460746284604F05E
:1056200070FA78B3B5FBF7F307FB135353BBB6FB24
:10563000F7F407FB14642CBBB7421DD84FF0FF32C0
:105640004FF0FF331148DFF8488002F083F804F090
:1056500049FD0746FFF7AEFF044680B9284601F032
:10566000EBFC98F800300BB1FFF78EFFF61B3D44C2
:10567000F0D1064802F04AF82046BDE8F0816FF00C
:105680008B04F6E76FF01504F6E700BF3C1E002020
:10569000762A00202DE9F8430E4630461946174673
:1056A0001C4604F02EFA88B344EA060515F00305FB
:1056B0002CD1BCB11748DFF860904FF0FF324FF0AB
:1056C000FF3302F047F824F00304AC4206EB050870
:1056D0000BD1124AD2F80034DB07FBD500240D4869
:1056E00002F014F82046BDE8F883FFF763FF50B9D5
:1056F0007959404601F0C0FC99F800300BB1FFF732
:1057000043FF0435E1E76FF08B04E8E76FF0150421
:10571000E8E700BF3C1E0020762A002000E00140A0
:10572000F0B54068057B01F01F0444EA45140569A3
:1057300087B0002D64D0B2F5001F00F1100506D12E
:105740002146284604F0C6FC002007B0F0BD01AE9B
:105750000027B2F5800F0197776039D1B3F1007F50
:1057600014BF052304238DF804300023CDE904631E
:105770000393836823FA01F111F001011AD1B2F108
:10578000A07F17D104F01F03620903F5E0732AD04C
:10579000012A3BD11F4A52F82330DB070AD40DF10E
:1057A000030632462146284601F0A0FA1A4B9842D9
:1057B0001CD0029603AA2146284601F059F9174B3E
:1057C000984220D101222146284601F0F3FABBE796
:1057D000B3F1C06F05D0B3F1007F14BF01230223E2
:1057E000C1E70323BFE74FF0A042D4E73146284684
:1057F00001F0DAFA094B9842DBD06FF00B00A4E716
:105800006FF08500A1E76FF015009EE751F8233097
:10581000FFDE00BF000300500400AD0B0000AD0B25
:1058200038B545682B69B3B11035284601F0ACFA9C
:10583000044680B90146284601F072FA084B9842A6
:105840000BD108492246284601F04AFA2246052192
:105850000620FDF797FE002038BD6FF00400FBE73F
:105860000000AD0B69580000420970B5034602D034
:10587000012A17D070BD0D4E326951680029F9D048
:1058800003F01F0301250C689D400029F2D08A68AF
:105890002A4002D04B68304698472CB123682146F5
:1058A0001C46F2E7024EE7E72346F8E77CAF00002C
:1058B00068AF00002DE9F043466840F20635D00697
:1058C000337B87B002EA050554BFC2F340100320C2
:1058D00001F01F07B5F5837F144647EA43178DF89B
:1058E000030044D00FD8062D18D007D8B5B1022D2B
:1058F0003FD06FF0150007B0BDE8F083B5F5807FAD
:10590000F7D101250AE040F20222954233D0B5F5E5
:10591000407F32D0B5F5007FEBD1022522032ED592
:10592000726801238B40C2F80835326992BB07F0D8
:105930001F037F092BD0012F79D13F4A02EB83024D
:1059400084F48033D2F80017C3F30043C4F3404417
:1059500044EA430421F4E16144EA800421F00701B0
:1059600044EA05230B43C2F800370020C3E70725AC
:10597000D4E70425D2E70525D0E70325CEE7630366
:1059800041BF012372688B40C2F80C35CDE74FF060
:10599000A042D3E710360DF102023946304601F03D
:1059A000A5F914F4403F80460CD13946304604F046
:1059B0008FFB224B9845D8D19DF80210304601F05C
:1059C000EDF9D2E701AB4FF0000903AA39463046A2
:1059D000CDE90439CDE90199CDF80C9001F048F8F2
:1059E000164B984285D114F4003315D09DF803303E
:1059F0008DF80E3084F48034C4F300444B4603AA7F
:105A0000394630468DF80C508DF80D4001F0EAF81B
:105A10000A4B9842CDD06CE7CDE9043303AA0DF1CF
:105A2000030339463046039301F022F8F0E703F50B
:105A3000E07352F82330FFDE000300500000AD0B8E
:105A4000036803F01F025B09026004D0012B0348C6
:105A500018BF002070474FF0A0407047000300506F
:105A60002DE9F04FDFF89491DFF894A185B0154649
:105A7000834600EB810140F2FF18594503D1002015
:105A800005B0BDE8F08FDBF800305E04C3F3C3223D
:105A9000C3F3080400F1AC805B0C19F802704445B4
:105AA00008BF4FF0FF34222B00F2A580DFE803F09F
:105AB00012191F22252B22A3A3A3A33B68A3A3A3F0
:105AC000A3A3A3A3A3A36B818487A3A3A38A919475
:105AD000979A9D00C5F80C45601C5ED10BF1040B34
